{
  "_format": "hh-sol-artifact-1",
  "contractName": "Counter",
  "sourceName": "contracts/Interface.sol",
  "abi": [
    {
      "inputs": [],
      "name": "count",
      "outputs": [
        {
          "internalType": "uint256",
          "name": "",
          "type": "uint256"
        }
      ],
      "stateMutability": "view",
      "type": "function"
    },
    {
      "inputs": [],
      "name": "increment",
      "outputs": [],
      "stateMutability": "nonpayable",
      "type": "function"
    }
  ],
  "bytecode": "0x608060405234801561001057600080fd5b50610173806100206000396000f3fe608060405234801561001057600080fd5b50600436106100365760003560e01c806306661abd1461003b578063d09de08a14610059575b600080fd5b610043610063565b6040516100509190610093565b60405180910390f35b610061610069565b005b60005481565b600160008082825461007b91906100ae565b92505081905550565b61008d81610104565b82525050565b60006020820190506100a86000830184610084565b92915050565b60006100b982610104565b91506100c483610104565b9250827fffffffffffffffffffffffffffffffffffffffffffffffffffffffffffffffff038211156100f9576100f861010e565b5b828201905092915050565b6000819050919050565b7f4e487b7100000000000000000000000000000000000000000000000000000000600052601160045260246000fdfea26469706673582212206de75be83efe23bcb2df39aa43b98c36933e2bb8fed6a13c60f5e6aca008aa5364736f6c63430008040033",
  "linkReferences": {},
  "deployedLinkReferences": {}
}