{
  "_format": "hh-sol-artifact-1",
  "contractName": "UniswapExample",
  "sourceName": "contracts/Interface.sol",
  "abi": [
    {
      "inputs": [],
      "name": "getTokenReserves",
      "outputs": [
        {
          "internalType": "uint256",
          "name": "",
          "type": "uint256"
        },
        {
          "internalType": "uint256",
          "name": "",
          "type": "uint256"
        }
      ],
      "stateMutability": "view",
      "type": "function"
    }
  ],
  "bytecode": "0x6080604052735c69bee701ef814a2b6a3edd4b1652cb9cc5aa6f6000806101000a81548173ffffffffffffffffffffffffffffffffffffffff021916908373ffffffffffffffffffffffffffffffffffffffff160217905550736b175474e89094c44da98b954eedeac495271d0f600160006101000a81548173ffffffffffffffffffffffffffffffffffffffff021916908373ffffffffffffffffffffffffffffffffffffffff16021790555073c02aaa39b223fe8d0a0e5c4f27ead9083c756cc2600260006101000a81548173ffffffffffffffffffffffffffffffffffffffff021916908373ffffffffffffffffffffffffffffffffffffffff16021790555034801561010e57600080fd5b506104018061011e6000396000f3fe608060405234801561001057600080fd5b506004361061002b5760003560e01c8063b9cf500514610030575b600080fd5b61003861004f565b6040516100469291906102f7565b60405180910390f35b60008060008060009054906101000a900473ffffffffffffffffffffffffffffffffffffffff1673ffffffffffffffffffffffffffffffffffffffff1663e6a43905600160009054906101000a900473ffffffffffffffffffffffffffffffffffffffff16600260009054906101000a900473ffffffffffffffffffffffffffffffffffffffff166040518363ffffffff1660e01b81526004016100f49291906102ce565b60206040518083038186803b15801561010c57600080fd5b505afa158015610120573d6000803e3d6000fd5b505050506040513d601f19601f820116820180604052508101906101449190610238565b90506000808273ffffffffffffffffffffffffffffffffffffffff16630902f1ac6040518163ffffffff1660e01b815260040160606040518083038186803b15801561018f57600080fd5b505afa1580156101a3573d6000803e3d6000fd5b505050506040513d601f19601f820116820180604052508101906101c79190610261565b506dffffffffffffffffffffffffffff1691506dffffffffffffffffffffffffffff1691508181945094505050509091565b60008151905061020881610386565b92915050565b60008151905061021d8161039d565b92915050565b600081519050610232816103b4565b92915050565b60006020828403121561024a57600080fd5b6000610258848285016101f9565b91505092915050565b60008060006060848603121561027657600080fd5b60006102848682870161020e565b93505060206102958682870161020e565b92505060406102a686828701610223565b9150509250925092565b6102b981610320565b82525050565b6102c88161036c565b82525050565b60006040820190506102e360008301856102b0565b6102f060208301846102b0565b9392505050565b600060408201905061030c60008301856102bf565b61031960208301846102bf565b9392505050565b600061032b8261034c565b9050919050565b60006dffffffffffffffffffffffffffff82169050919050565b600073ffffffffffffffffffffffffffffffffffffffff82169050919050565b6000819050919050565b600063ffffffff82169050919050565b61038f81610320565b811461039a57600080fd5b50565b6103a681610332565b81146103b157600080fd5b50565b6103bd81610376565b81146103c857600080fd5b5056fea2646970667358221220a212bbdb7daba0e8fa5a454487938a82ef0a255b0b0787bc6462cb7c6d796a3b64736f6c63430008040033",
  "linkReferences": {},
  "deployedLinkReferences": {}
}